:020000040800F2
:10000000700A00208901000847180008051600083A
:10001000451800088F020008E71B000800000000D8
:100020000000000000000000000000004B18000865
:100030001303000800000000491800084D180008CC
:10004000A3010008A3010008A3010008A301000800
:10005000A3010008A3010008A3010008A3010008F0
:10006000A3010008A3010008A3010008A3010008E0
:10007000C5020008D1020008A3010008A30100087E
:10008000DD020008A3010008A3010008A301000885
:10009000A3010008A3010008A3010008A3010008B0
:1000A000A3010008B1180008A3010008A30100087B
:1000B000A3010008A3010008A3010008A301000890
:1000C000A3010008A3010008A3010008A301000880
:1000D000A3010008A3010008A3010008A301000870
:1000E000A3010008A3010008A301000800F002F822
:1000F00000F03AF80AA090E8000C82448344AAF188
:100100000107DA4501D100F02FF8AFF2090EBAE885
:100110000F0013F0010F18BFFB1A43F0010318473B
:10012000941D0000B41D0000103A24BF78C878C1A7
:10013000FAD8520724BF30C830C144BF04680C60ED
:10014000704700000023002400250026103A28BF35
:1001500078C1FBD8520728BF30C148BF0B60704739
:100160001FB51FBD10B510BD00F058F81146FFF7C0
:10017000F7FF01F0C5FD00F076F803B4FFF7F2FFDA
:1001800003BC00F07DF8000009488047094800479B
:10019000FEE7FEE7FEE7FEE7FEE7FEE7FEE7FEE737
:1001A000FEE7FEE704480549054A064B7047000094
:1001B000AF180008ED00000870040020700A00204D
:1001C00070060020700600204FF0000200B51346B4
:1001D00094469646203922BFA0E80C50A0E80C5067
:1001E000B1F12001BFF4F7AF090728BFA0E80C5018
:1001F00048BF0CC05DF804EB890028BF40F8042B11
:1002000008BF704748BF20F8022B11F0804F18BF7D
:1002100000F8012B7047704770477047754600F033
:100220002BF8AE4605006946534620F00700854688
:1002300018B020B5FFF7B6FFBDE820404FF000062C
:100240004FF000074FF000084FF0000B21F00701BE
:10025000AC46ACE8C009ACE8C009ACE8C009ACE801
:10026000C0098D46704710B50446AFF300802046A4
:10027000BDE81040FFF781BF004870470C04002024
:1002800001491820ABBEFEE7260002007047FEE7DA
:10029000014801F0EBBC0000F803002010B54FF45A
:1002A00000420549054801F028FD05490020087075
:1002B000BDE8104001F0A8B900080140F803002093
:1002C00012000020014800F073B800005C0000201C
:1002D000014800F06DB80000A0000020014800F0C7
:1002E00067B80000E400002030B590F840500124C9
:1002F000AC40C56B6C60046863604368102B036896
:1003000003D099600068C26030BD9A600068C16027
:1003100030BD704772B6FEE710B590F8211000248A
:10032000022903D00421816301243DE001680A68A9
:1003300022F00E020A6001680A6822F001020A60D7
:100340001A4A0168914201D1012121E0174A143271
:10035000914201D110211BE0144A2832914201D16F
:10036000891515E0114A3C32914201D189140FE000
:100370000E4A5032914202D14FF4803108E00B4ACC
:100380006432914202D14FF4801101E04FF080714C
:10039000064A083A5160012180F82110002180F8B6
:1003A0002010416B01B18847204610BD0800024073
:1003B0002DE9F05FC16B0C6801680B68D0F840C094
:1003C000042202FA0CF2494DDFF824A1494E4A4FAB
:1003D000DFF828B1DFF828E122422CD05A072AD5CD
:1003E0000A68920603D40A6822F004020A600168CF
:1003F000A94201D1042219E0514501D1402215E062
:10040000B14202D14FF4806210E0B94202D14FF400
:1004100080420BE0594502D14FF4802206E071453D
:1004200002D14FF4800201E04FF080622F49083979
:100430004A60C16A3BE04FF0020808FA0CF818EA7B
:10044000040F4FF000094FF0010235D05FEA8378C6
:1004500032D50B689B0605D40B6823F00A030B60AA
:1004600080F821200168A94201D1022219E05145FA
:1004700001D1202215E0B14202D14FF4007210E008
:10048000B94202D14FF400520BE0594502D14FF46A
:10049000003206E0714502D14FF4001201E04FF046
:1004A0000072124908394A6080F82090816A002958
:1004B0001AD0BDE8F05F0847082505FA0CF525427B
:1004C00012D01B0710D50B6823F00E030B6090F8B9
:1004D0004010C36B02FA01F15960826380F8212059
:1004E00080F82090016BE2E7BDE8F09F0800024031
:1004F0001C0002403000024044000240580002400C
:100500006C00024030B528B308C8134914221944BE
:10051000B1FBF2F18900C163104981630221417787
:100520001A6843F6F0718A43D0E900142143D0E9F8
:1005300002452C43214304692143446921438469D2
:100540002143114319600021416301224277017761
:10055000084630BD012030BDF8FFFDBF000002405D
:1005600070B5044690F82000002501280CD0012029
:1005700084F8200094F821600020012E06D084F831
:1005800020000225284670BD022070BD022684F896
:100590002160A0632068066826F0010606602046F8
:1005A000FFF7A2FEE06A00282068016802D041F04F
:1005B0000E0106E021F0040101602068016841F0AD
:1005C0000A0101602068016841F001010160D9E77A
:1005D0002DE9F84FDFF8B8910024A9F1040B234668
:1005E0000F2709F1040AABF1040EC9E00125A5406B
:1005F0002A40AA427DD1674ED1F804C0ACEB060870
:10060000B44532D014DCBCF1030F3AD009DCBCF1A4
:10061000000F2AD0BCF1010F1CD0BCF1020F31D168
:100620001DE0BCF1110F17D0BCF1120F2AD119E057
:10063000B8F5881F19D006DCB8F5803F15D0B8F59D
:10064000801F1FD111E0B8F5001F0ED0B8F5041FB0
:1006500018D10AE0CB6815E0CB681B1D12E0CB680F
:1006600008330FE0CB680C330CE08B682BB1012B07
:100670004FF0080303D0456104E0042302E0056164
:1006800000E00023FF2A01D8064601E000F104063D
:100690004FEA840501D9A5F12005D6F8008007FAB4
:1006A00005FC28EA0C0803FA05F548EA0508C6F82F
:1006B00000804D68ED0062D5374DAE6946F0010609
:1006C000AE61AD6924F0030605F001050095334DD8
:1006D00006EB050CDCF80850A607360F07FA06F8FB
:1006E00025EA0805DFF8B880404503D14FF000083F
:1006F00017E044E0DFF8AC80404502D14FF001083C
:100700000FE0DFF8A480404502D14FF0020808E076
:10071000DFF89880404502D14FF0030801E04FF028
:10072000040808FA06F848EA0508CCF808804D687D
:10073000D9F80060ED024D4601D5164300E096431E
:100740002E604D68DAF80060AD02554601D51643BB
:1007500000E096432E604D68DBF80060AD035D4617
:1007600001D5164300E096432E604D68DEF8006028
:10077000ED03754601D5164300E096432E60641CD8
:100780000D682A46E5407FF431AFBDE8F88F0000E0
:100790000804014000001110001002400000014058
:1007A00000080140000C014000100140001401400D
:1007B0008068084000D00120704700000148806830
:1007C0007047000000000020024881680278114450
:1007D0008160704700000020074810B5016841F0B3
:1007E00010010160032000F075F80F2000F006F8FA
:1007F00000F024F8002010BD0020024070B50D4D1F
:1008000004464FF47A712878B1FBF0F00A49096880
:10081000B1FBF0F000F0BCFA48B9102C07D200226E
:100820002146501E00F036F800206C6070BD01209B
:1008300070BD0000000000200C0000200C4808B52E
:10084000816941F001018161816901F0010100913B
:10085000C16941F08051C161C06900F080500090D1
:100860000448416821F0E06141F00071416008BD39
:100870000010024000000140002809DB00F01F02C8
:10088000012191404009800000F1E020C0F80011F2
:1008900070470000F0B40E4B1B680C46C3F30223F4
:1008A000C3F10705042D00D90425191D072901D21C
:1008B000002300E0DB1E012606FA05F1491E214057
:1008C00099409E40761E16403143F0BC01F08CB931
:1008D0000CED00E0064900F0070208684FF6FF0340
:1008E000184040EA0220034A1043086070470000A5
:1008F0000CED00E00000FA052DE9F0470F46050079
:1009000061D0434E306800F00700B84209D2306829
:1009100020F0070038433060306800F00700B8422C
:1009200051D128683B4C810712D5400703D5606838
:1009300040F4E06060602878000703D5606840F408
:10094000605060606068A96820F0F0000843606053
:100950002878C00728D06868012810D021680228AC
:1009600010D0890700292EDA616821F003010143C4
:100970006160FFF723FF804641F288390DE021686E
:100980008903EFE78901EDE7FFF718FFA0EB080106
:10099000494502D90320BDE8F0876068696800F026
:1009A0000C00B0EB810FEFD1306800F00700B842C7
:1009B0000BD9306820F0070038433060306800F011
:1009C0000700B84201D00120E5E72878400705D5A7
:1009D0006068E96820F4E0600843606028780007F8
:1009E00006D56068296920F4605040EAC100606063
:1009F00000F018F86168084AC1F30311515CC8405F
:100A00000649086006480068FFF7F8FE0020C2E7C4
:100A10000020024000100240B21D00080C0000201F
:100A2000040000200E4A51680E4801F00C03042B0C
:100A300011D0082B0FD10C48C1F38343C903C05C0C
:100A40000AD55168084AC1F34041921E515C054ADB
:100A50005043B0FBF1F07047044948437047000031
:100A60000010024000127A00A21D000800093D009B
:100A70002DE9F84F040070D02078C04DC00749D050
:100A80006868C0F38100012807D06868C0F381005E
:100A9000022809D16868C00306D52868800339D5C3
:100AA00060680028E7D035E06068B0F5803F0BD083
:100AB00010B1B0F5A02F11D0286820F48030286044
:100AC000286820F4802002E0286840F48030286004
:100AD000606890B1FFF772FE06460AE0286840F4AD
:100AE00080202860F0E700BFFFF768FE801B6428C5
:100AF00073D828688003F7D50CE0FFF75FFE064641
:100B000005E000BFFFF75AFE801B6428F0D8286874
:100B10008003F7D420789A4E80074FF001094FF0F8
:100B2000000839D5686810F00C0F07D06868C0F36A
:100B30008100022809D16868C00306D428688007AC
:100B400014D52069012808D110E02069B0B1C6F899
:100B50000090FFF733FE074605E00AE1FFF72EFE9F
:100B6000C01B0228C4D828688007F7D528686169A7
:100B700020F0F80040EAC10028600DE0C6F80080CF
:100B8000FFF71CFE074604E0FFF718FEC01B022813
:100B900023D828688007F7D4207800072CD5794817
:100BA000A169D9B1C0F80090FFF708FE074604E03C
:100BB000FFF704FEC01B02280FD8686A8007F7D52C
:100BC00071484FF4FA510068B0FBF1F0009000BF9B
:100BD0000098411E0091FAD20EE080E0C0F800803B
:100BE000FFF7ECFD074604E0FFF7E8FDC01B022815
:100BF00075D8686A8007F7D42078400760D5E8691F
:100C00000027C00008D4E86940F08050E861E86936
:100C1000012700F0805000905C480168C90513D49A
:100C20000168834641F480710160FFF7C7FD824689
:100C300006E000BFFFF7C2FDA0EB0A0064284ED813
:100C4000DBF80000C005F5D5E06801280AD008B13E
:100C5000052813D0286A20F001002862286A20F0B5
:100C6000040002E0286A40F001002862E06841F2D6
:100C7000883B98B1FFF7A2FD82460BE0286A40F05E
:100C800004002862EEE700BFFFF798FDA0EB0A0121
:100C900059455AD8286A8007F6D50CE0FFF78EFD33
:100CA000824605E0FFF78AFDA0EB0A0159454CD8C2
:100CB000286A8007F6D41FB1E86920F08050E86107
:100CC000E06988B36968C1F38101022944D0022830
:100CD000C6F8608004D0FFF771FD044638E034E0C8
:100CE000FFF76CFD074604E0FFF768FDC01B022814
:100CF0002BD828688001F7D4206AB0F5803F05D151
:100D00006868A16820F4003008436860D4E90801ED
:100D10000843696821F4741108436860C6F860905C
:100D2000FFF74CFD044606E025E000BFFFF746FD57
:100D3000001B022809D828688001F7D51BE000BFF6
:100D4000FFF73CFD001B022802D90320BDE8F88F05
:100D500028688001F4D40EE00128F7D06868226A80
:100D600000F48031914204D1616A00F4701088422D
:100D700001D00120EAE70020E8E70000001002406F
:100D800000004242800442420C00002000700040FB
:100D900010B5401EB0F1807F01D3012010BD4FF08F
:100DA000E02460610F21601700F01EFF0020A061A9
:100DB00007202061002010BD7047704710B590F8E3
:100DC0003C20012A22D0012280F83C20CA688C688D
:100DD00022F4407222434C6822F4806222430C6861
:100DE00022F4006222430C6922F4805222434C69AF
:100DF00022F400522243C969002322F480420A43AC
:100E000001684A6480F83C30002010BD022010BD0B
:100E100070B590F83C20012A26D0012480F83C408F
:100E2000022280F83D2003685A689D6822F070060F
:100E30000A6832435A600D4B02689A4208D0B2F1F8
:100E4000804F05D00A4B9A4202D00A4B9A4204D1F5
:100E5000496825F080031943916080F83D400021E6
:100E600080F83C10084670BD022070BD002C014087
:100E7000000400400008004010B5040003D094F8BE
:100E80003D0010B107E0012010BD002084F83C00B7
:100E9000204600F01FF8022084F83D00211D206844
:100EA00000F00CFD012084F8460084F83E0084F830
:100EB0003F0084F8400084F8410084F8420084F840
:100EC000430084F8440084F8450084F83D00002085
:100ED00010BD00002DE9F84F054600682B498842F7
:100EE00051D12B48816941F40061816180692A4CAC
:100EF00000F40060009027484FF480691026002716
:100F00004FF080084FF4807BC4F8149084E8C10946
:100F10004FF0200A8014C4E906A02046FFF7F2FA39
:100F200008B1FFF7F7F96C6265621C4C1948143080
:100F3000C4F8149084E8C1098014C4E906A02046CE
:100F4000FFF7E0FA08B1FFF7E5F9AC626562144C0F
:100F500010485030C4F8149084E8C1098014C4E9E2
:100F600006A02046FFF7CEFA08B1FFF7D3F9EC62EE
:100F70000022114619206562FFF78CFCBDE8F84F8E
:100F80001920FFF779BCBDE8F88F0000002C014064
:100F9000001002401C0002405C000020A000002065
:100FA000E400002090F83D10012901D00120704795
:100FB000022180F83D1000680B49884208D0B0F14A
:100FC000804F05D00949884202D00949884204D19E
:100FD000816801F00701062903D0016841F0010191
:100FE0000160002070470000002C01400004004018
:100FF0000008004001680A6A41F211131A4207D141
:101000000A6A9B101A4203D10A6822F001020A60A0
:10101000012180F83D100020704770B5044690F81B
:101020003C000025012817D0012684F83C600220EE
:1010300084F83D002068826822F0770222F47F4223
:1010400082600868502838D00DDC20284FD005DC9D
:1010500090B3102811D14AE0022070BD302846D04C
:1010600040280AD13BE060282FD070280DD0B0F581
:10107000805F03D0B0F5005F12D0012584F83D6099
:10108000002084F83C00284670BDCB68D1E90121DE
:10109000206800F0D1FC2068816841F0770109E008
:1010A000CB68D1E90121206800F0C6FC2068816886
:1010B00041F480418160E1E719E0CA68496820682D
:1010C00000F06EFD5021206806E0CA68496820687B
:1010D00000F077FD6021206800F0B8FCCEE7CA6818
:1010E0004968206800F05CFD40212068F4E7226830
:1010F00001461046F0E7704770472DE9F04104467D
:101100000068C66805694FF00007A90713D5B10745
:1011100011D5F91E016101202077206880698007C0
:10112000204602D0FFF7E8FF04E000F0A5F82046D3
:1011300000F037F92777680716D5700714D52168AE
:101140006FF004000861022020772068806910F4A5
:10115000407F204602D0FFF7CFFF04E000F08CF87C
:10116000204600F01EF92777280715D5300713D53C
:1011700021686FF008000861042020772068C069AA
:101180008007204602D0FFF7B7FF04E000F074F8B4
:10119000204600F006F92777E80616D5F00614D5A4
:1011A00021686FF010000861082020772068C0696E
:1011B00010F4407F204602D0FFF79EFF04E000F0CD
:1011C0005BF8204600F0EDF82777E80708D0F00735
:1011D00006D021686FF001000861204600F010FA87
:1011E000280608D5300606D521686FF08000086112
:1011F0002046FFF7E1FD680608D5700606D5216890
:101200006FF040000861204600F0FBF9A8060AD5FF
:10121000B00608D521686FF0200008612046BDE8BF
:10122000F041FFF7CABDBDE8F081000000B585B010
:101230000021009101910291039100680B498842BD
:1012400012D10B48816941F00401816180696946CE
:1012500000F0040004904FF4E06000900220019040
:1012600003900448FFF7B4F905B000BD002C01401D
:101270000010024000080140704770B5044690F825
:101280003C0000260D4601280FD0012084F83C00C8
:101290006AB1042A1DD0082A2FD00C2A3FD001267B
:1012A000002084F83C00304670BD022070BD2068EC
:1012B00000F0D4FB2068816941F008018161206859
:1012C000816921F004018161206881692A691143E3
:1012D00011E0206800F0EAFB2068816941F40061B8
:1012E00081612068816921F4806181612068816960
:1012F0002A6941EA02218161D2E7206800F002FCFC
:101300002068C16941F00801C1612068C16921F00C
:101310000401C1612068C1692A69114311E0206894
:1013200000F01CFC2068C16941F40061C1612068C3
:10133000C16921F48061C1612068C1692A6941EAFB
:101340000221C161ACE710B5040003D094F83D0060
:1013500010B107E0012010BD002084F83C002046B9
:1013600000F01EF8022084F83D00211D206800F0E6
:10137000A5FA012084F8460084F83E0084F83F0076
:1013800084F8400084F8410084F8420084F8430067
:1013900084F8440084F8450084F83D00002010BD26
:1013A00070477047704700002DE9F04117460D0067
:1013B00004464FF000060CD0042D11D0082D16D095
:1013C00094F84100022819D094F84100012818D05F
:1013D0007CE094F83E00022810D094F83E00F5E737
:1013E00094F83F00022809D094F83F00EEE794F803
:1013F0004000022802D094F84000E7E70220BDE850
:10140000F081002F62D0002B60D04649464ADFF8B9
:101410001CC102204DB1042D18D0082D27D084F80E
:1014200041000C2D44D0012679E084F83E00606A2A
:101430008162606A3946C262606AC0F830C0226860
:10144000606A3432FFF78CF888BB21E084F83F00F3
:10145000A06A8162A06A3946C262A06AC0F830C040
:101460002268A06A3832FFF77BF800BB15E084F8E9
:101470004000E06A8162E06A3946C262E06AC0F810
:1014800030C02268E06A3C32FFF76AF878B909E0B8
:101490002068C16841F400711EE02068C16841F411
:1014A000806119E02068C16841F4006114E00DE03A
:1014B000206B8162206B3946C262206BC0F830C05D
:1014C0002268206B4032FFF74BF808B1012096E705
:1014D0002068C16841F48051C1600122294620681A
:1014E00000F028FA12492068884203D1426C42F485
:1014F000004242642068884208D0B0F1804F05D095
:101500000C49884202D00C49884204D1816801F01C
:101510000701062903D0016841F00101016030464E
:101520006DE700004F190008AD190008E519000823
:10153000002C0140000400400008004070B50D0080
:1015400004464FF0000607D0042D0CD0082D11D012
:101550000C2D16D0012645E02068C16821F40071E9
:10156000C160606A13E02068C16821F48061C160D5
:10157000A06A0CE02068C16821F40061C160E06AE3
:1015800005E02068C16821F48051C160206BFEF73E
:10159000C3FE00222946206800F0CCF9174B41F227
:1015A000111120688A10984209D1036A0B4206D1B2
:1015B000036A134203D1436C23F40043436420685D
:1015C000036A0B4206D1016A114203D1016821F07E
:1015D0000101016001203DB1042D08D0082D09D082
:1015E00084F84100304670BD84F83E00FAE784F884
:1015F0003F00F7E784F84000F4E70000002C0140CA
:1016000070477047FEE7000007490A7828B1002AB2
:1016100009D10120087000F06BB8002A03D0002027
:10162000087000F085B87047100000202DE9F043E5
:101630001649184F00204E78154C782307F1F00812
:1016400007F5F07900FB06F1B1FBF3F203FB12158D
:1016500001F12802B2FBF3FC03FB1C225031B1FB69
:10166000F3FC34F8155003FB1C1127F8105034F824
:10167000122028F8102034F8112029F81020401CDE
:1016800080B27828DED3BDE8F0830000100000208F
:10169000C21D00082801002010B5FFF7C7FF07484A
:1016A0000749008808600548F030091D0088086077
:1016B0000448091D0088086010BD000028010020B2
:1016C000342C01400803002010B5411E04290CD21F
:1016D000064C6070FFF7AAFF2078002805D000F0C4
:1016E00027F8BDE8104000F003B810BD100000203E
:1016F00010B578230B4A00210B48FFF755FE094A25
:101700007823F03204210848FFF74EFE7823074A79
:1017100008210548FFF748FEBDE810400248FFF7E2
:1017200041BC000028010020140000200803002014
:1017300010B500210748FFF701FF04210548FFF716
:10174000FDFE08210348FFF7F9FEBDE810400148FF
:10175000FFF750BC1400002030B595B000240F9462
:1017600010941194129413941C2168461494FEF75B
:101770002BFD202107A8FEF727FD31482F49202502
:1017800001604721C0E9011540F2CF71C0E903149F
:1017900044618461FFF770FB08B172B6FEE74FF455
:1017A00080500F900FA92648FFF737FC08B172B69A
:1017B000FEE72348FFF7C7FD08B172B6FEE7CDE9A3
:1017C000135413A91E48FFF723FB08B172B6FEE7B6
:1017D0006020CDE90004029403940494059400224F
:1017E000694617480694FFF748FD08B172B6FEE750
:1017F000042269461248FFF740FD08B172B6FEE7C1
:10180000082269460E48FFF738FD08B172B6FEE7B8
:101810000794089409944FF400500A94CDE90B40C2
:1018200007A907480E94FFF7C9FA08B172B6FEE798
:101830000348FFF7FBFC15B030BD0000002C014051
:1018400014000020FEE7FEE770477047FEF7BCBFBC
:1018500030B58FB028216846FEF7B6FC14210AA8DF
:10186000FEF7B2FC01210804CDE900100024029427
:1018700002250491CDE907504FF4E0100990684625
:10188000FFF7F6F808B172B6FEE70F20CDE90A05BA
:101890004FF48060CDE90C4002210AA80E94FFF7B6
:1018A0002BF8002801D072B6FEE70FB030BD7047AC
:1018B0000148FFF722BC000014000020F0B50268C8
:1018C000194B1A4C1A4D4FF08047984205D0B84238
:1018D00003D0A04201D0A84203D122F070064A688A
:1018E0003243984205D0B84203D0A04201D0A8426A
:1018F00003D122F44074CA6822434C6922F080026A
:10190000224302608A68C2620A688262984201D1F8
:1019100009690163012141610169C90703D00169B6
:1019200021F001010161F0BD002C014000040040E4
:101930000008004010B501F01F030121046A99401E
:101940008C430462016A9A401143016210BD10B5D4
:10195000446A0121626A824205D121778069F8B91F
:1019600084F83E101CE0A26A824206D1022222774D
:101970008069A8B984F83F1012E0E26A824206D179
:1019800004222277806958B984F8401008E0226B5D
:10199000824205D108222277806908B984F8411073
:1019A0002046FFF7FEFC0020207710BD10B5446AEA
:1019B000616A814201D101200DE0A16A814201D119
:1019C000022008E0E16A814201D1042003E0216B9A
:1019D000814201D1082020772046FFF7E3FC002058
:1019E000207710BD10B5446A0121626A824203D19A
:1019F000217784F83E1019E0A26A824204D10220C5
:101A0000207784F83F1011E0E26A824204D104207A
:101A1000207784F8401009E0226B824204D108202C
:101A2000207784F8411001E084F83D102046FFF74C
:101A300062FB0020207710BD10B5846842EA0322C3
:101A400024F47F440A432243826010BD826822F05E
:101A500070020A4342F007018160704730B5036AA3
:101A6000026A22F0010202624268846924F073056E
:101A70000C682C4323F002058B682B430A4DA842C7
:101A80000BD123F00805CB6822F440722B434D693B
:101A900023F0040315438A692A434260846149683C
:101AA0004163036230BD0000002C014030B5026A82
:101AB000036A23F010030362436884690D6824F409
:101AC000E64444EA05248D6822F0200242EA051229
:101AD0000B4DA8420ED1CD6822F0800242EA0512D9
:101AE0004D6923F4406343EA85038D6922F0400287
:101AF00043EA85034360846149688163026230BDC3
:101B0000002C014030B5036A026A22F4807202623E
:101B10004268C46923F4007324F073050C682C43F5
:101B20008D6843EA05230C4DA8420ED1CD6823F4FD
:101B3000006343EA05234D6922F4405242EA05124C
:101B40008D6923F4806342EA05124260C4614968EA
:101B5000C163036230BD0000002C014030B5046A4F
:101B6000026A22F4805202624268C3690D6823F45B
:101B7000E64343EA05238D6824F4005444EA05341F
:101B8000064DA84204D14D6922F4804242EA8512F2
:101B90004260C36149680164046230BD002C0140A9
:101BA00010B5036A046A24F001040462846924F015
:101BB000F00444EA021423F00A020A438461026238
:101BC00010BD10B5036A046A24F01004046284692D
:101BD00023F0A00324F4704444EA023243EA0111E2
:101BE0008261016210BDFEE70907090E002804DBCF
:101BF00000F1E02080F80014704700F00F0000F1C1
:101C0000E02080F8141D704710B50A4C2078002899
:101C10000FD02078401C20702078042801D90120A2
:101C200020700120FFF7F0FC2078BDE81040FFF79E
:101C30004BBD10BD120000200A4810B5017831B12B
:101C400000210170BDE810400846FFF7DDBC01210E
:101C500001700846FFF7D8FCBDE810400120FFF7EF
:101C600033BD0000120000207047704770B5044675
:101C7000C1890069FEF79CFDA1780126814204D04C
:101C8000A070E670FEF79AFD6060E078002540B134
:101C9000FEF794FD6168401A0F2802D3A0782070E7
:101CA000E57020786178884210D0F0B1FEF786FDAB
:101CB000A168401AB0F57A7F02D82046FFF7A4FF4A
:101CC0002046FFF7D2FF257320786070207B002824
:101CD0000AD0FEF773FDA168401AB0F5FA6F03D37E
:101CE0002046FFF7A9FF257370BD26732046FFF736
:101CF000BBFFFEF763FDA060E6E70161C2817047AC
:101D000086B0FEF769FDFFF7A3FD0020224C01908D
:101D10000390A06940F02000A061A06900F02000BD
:101D20000490A06940F00400A061A069694600F039
:101D3000040004904FF400400090012002901748E6
:101D4000FEF746FC606940F00100606160690022B6
:101D500000F00100009011460C20FEF79BFD0C20C6
:101D6000FEF78AFD002211460D20FEF793FD0D209F
:101D7000FEF782FD002211461020FEF78BFD102099
:101D8000FEF77AFDFFF7E8FCFFF786FCFEF786FA20
:101D9000FEF77EFAFCE70000001002400008014058
:101DA000010202030405060708090A0B0C0D0E0FB9
:101DB00010100000000000000000010203040607EC
:101DC0000809F4010E02280242025B0274028C022E
:101DD000A302BA02CF02E402F70209031A0329039D
:101DE000370343034E0357035E03640368036A0328
:101DF0006B036A03680364035E0357034E034303E4
:101E0000370329031A030903F702E402CF02BA02D7
:101E1000A3028C0274025B02420228020E02F40149
:101E2000D901BF01A5018C0173015B0144012D01A2
:101E300018010301F000DE00CD00BE00B000A400D8
:101E400099009000890083007F007D007C007D0068
:101E50007F008300890090009900A400B000BE00BC
:101E6000CD00DE00F000030118012D0144015B01EB
:101E700073018C01A501BF01D901F4010E022802F2
:101E800042025B0274028C02A302BA02CF02E40295
:101E9000F70209031A032903370343034E035703C9
:101EA0005E03640368036A036B036A0368036403E5
:101EB0005E030000D41E0008000000201400000093
:101EC00028010008E81E0008140000205C0A000039
:101ED00044010008010000001000000000000000A4
:081EE00000127A00000100006D
:04000005080000ED02
:00000001FF
